:040000004BEF00F0D2
:1000080000C016F00CC015F0F292640E175C02E204
:10001800172A01D0176A0A0E046E17C000F020D8FC
:1000280008C000F0180EE96E000EEA6E0050E926CE
:10003800D8B0EA2AEECF22F00A0E046E17C000F0FC
:100048000FD8180EE96E000EEA6E0050E926D8B0F7
:10005800EA2AEECF23F016C000F015C00CF011000C
:10006800086A080E0C6E003408360450085ED8B0D2
:0E00780002D00826D89000360C2EF5D71200C4
:100086000900F5CFE6FF0006FBE10106F9E11200E3
:10009600176A3F0E186E060E196E5B0E1A6E4F0E1D
:1000A6001B6E660E1C6E6D0E1D6E7D0E1E6E070E91
:1000B6001F6E7F0E206E670E216E3F0E226E3F0E64
:1000C600236E070EC16E938092909292816A809001
:1000D6008092956A836AF19CF292F288F28EF19E82
:1000E60022C083FF8090340E0C6EF10E0D6E0D2E25
:1000F600FED70C2EFCD700000000808023C083FFB3
:100106008092340E0C6EF10E0D6E0D2EFED70C2E57
:0C011600FCD7000000008082E3D7FFD778
:020000040030CA
:0D000100220F0EFF0181FF0FC00FE00F4026
:00000001FF
