:040000005DEF00F0C0
:1000080000C018F00BC017F00CC016F00DC015F0AA
:10001800F2922D50000A20E1050E2E6E0A0E2E5C7B
:1000280018E2030E0B6E080E0C6E770E0D6E0D2E79
:10003800FED70C2EFCD70B2EFAD7190EE96E000E40
:10004800EA6E2E50E926D8B0EA2AEECF82FF2E2A91
:10005800E5D7010E2D6E1CD02E6A0A0E2E5C18E212
:10006800030E0B6E080E0C6E770E0D6E0D2EFED75E
:100078000C2EFCD70B2EFAD7230EE96E000EEA6E73
:100088002E50E926D8B0EA2AEECF82FF2E2AE5D7ED
:1000980018C000F017C00BF016C00CF015C00DF01A
:0200A800110045
:1000AA000900F5CFE6FF0006FBE10106F9E11200BF
:1000BA0085EC00F0070EC16E9380946AF19CF2926F
:1000CA00F288F28EF19E816A826A8282030E0B6E38
:1000DA00080E0C6E770E0D6E0D2EFED70C2EFCD769
:0A00EA000B2EFAD78284FFD7FFD750
:10010A0010EE19F0150E006E010E016EF40EF66E69
:0E011A00000EF76E000EF86E55EC00F01200AD
:0A00F40003020409030408090103D4
:0A00FE0003010908040309040203CA
:0101080000F6
:020000040030CA
:0D000100220F0EFF0181FF0FC00FE00F4026
:00000001FF
