:0400000064EF01F0B8
:1000080000C018F001C017F00CC016F00DC015F0B4
:1000180081CF1FF0F2A003D0D58E060ED66EF2A4C3
:1000280002D08270192A1F5211E119C020F01B0E4C
:10003800216E000E226E0BD9010E206E010E216E6C
:100048001B0E226E000E236E72D8D59EF290F2948B
:1000580018C000F017C001F016C00CF015C00DF064
:02006800110085
:06006A000000000012007E
:100070000F0E0C6E470E0D6E0D2EFED70C2EFCD7FC
:0600800000000000120068
:0A008600210E0D6E0D2EFED71200A4
:1000900027BE02D0839E01D0838E27BC02D0839CD2
:1000A00001D0838C27BA02D0839A01D0838A27B8E3
:1000B00002D0839801D083881AB002D0838401D003
:1000C00083948386D2DF839627B602D0839E01D0A5
:1000D000838E27B402D0839C01D0838C27B202D0B8
:1000E000839A01D0838A27B002D0839801D0838875
:1000F0001AB002D0838401D083948386B6DF8396BE
:0C0100001AA002D0B5DF01D0BEDF120053
:10010C00086A080E0C6E003408360450085ED8B02D
:0E011C0002D00826D89000360C2EF5D712001F
:0C012A001A9026C027F0AFDF1A801200E8
:100136000FD0800E206E19D0C00E206E16D0940EF1
:10014600206E13D0D40E206E10D0800E206E0DD0EF
:100156002050010AEEE02050020AEEE02050030A89
:10016600EEE02050040AEEE0F0D72104006E2050A5
:10017600002600C020F000C027F087DF1A90246A0E
:1001860024502224E96E000E2320EA6EEE520BE084
:1001960024502224E96E000E2320EA6EEECF26F0CC
:0A01A600C1DF242AEDD71A801200F1
:1001B0000900F5CFE6FF0006FBE10106F9E11200B8
:1001C000959695949598959A959C959E83968394EB
:1001D000839E839C839A83984BDF4ADF49DF838A1F
:1001E0008388838642DF839643DF83863EDF839660
:1001F0003FDF83863ADF83963BDF8398838635DF54
:10020000839636DF838631DF8396839A838E838657
:100210002CDF83962DDF839E8388838626DF83965B
:100220008398838622DF839623DF83861EDF83966F
:10023000838883861ADF83961BDF8398838615DF86
:100240008396838E838C838A838883860EDF83964E
:060250000FDF1A8012000E
:10025600236A030E235C0AE223502124E16E000E7A
:100266002220E26E200EE66E232AF3D723502124A5
:10027600E16E000E2220E26EE66A23062350212458
:10028600246E000E2220256E0A0E046E20C000F099
:100296003ADF08C000F0300E002624C0E1FF25C07A
:1002A600E2FF00C0E6FF0A0E046E20C000F02BDF5E
:1002B60000C020F00050000A01E102D02306DED77C
:0202C600120024
:1002C800196A070EC16E816A836A956A9388D09EFF
:1002D80081CF1FF0F290F286410ED56EF294F28A29
:0A02E800F28E6ADF0000FED7FFD798
:020000040030CA
:0D000100220F0EFF0181FF0FC00FE00F4026
:00000001FF
