:040000002DEF00F0F0
:1000080000C015F0F0A009D08280166A176A840E25
:10001800D56E0B0ED76EDC0ED66EF2A40DD00B0E7D
:10002800D76EDC0ED66E164A172A000E171802E194
:10003800030E1618D8B48290F090F29415C000F010
:020048001100A5
:10004A000900F5CFE6FF0006FBE10106F9E112001F
:10005A00166A176A070EC16E9382946A8290F18AB1
:0E006A00F090F086F294F28AF28EFFD7FFD764
:020000040030CA
:0D000100220F0EFF0181FF0FC00FE00F4026
:00000001FF
