:040000002CEF05F0EC
:1000080000C018F001C017F00CC016F00DC015F0B4
:10001800C4CF01F0006AC3500026000E012200C0C0
:1000280032F001C033F0B7DAE50E046EFF0E056E4C
:100038001F0E066E770E076E17D900C034F001C088
:1000480035F002C036F003C037F09E9C00C038F08F
:1000580001C039F002C03AF003C03BF0230E3C6EF9
:10006800000E3D6EE9DA010E386E010E396E230E70
:100078003A6E000E3B6EA3DA0B0E0B6E260E0C6E5C
:100088005D0E0D6E0D2EFED70C2EFCD70B2EFAD75B
:1000980000000000010E4A6E3BD8450EC26E18C023
:1000A80000F017C001F016C00CF015C00DF01100DB
:1000B8000F0E0C6E470E0D6E0D2EFED70C2EFCD7B4
:0600C80000000000120020
:0600CE000000000012001A
:0A00D400210E0D6E0D2EFED7120056
:1000DE000B820BAE79EF00F00368026801680068CE
:0800EE000A360232FF0E120077
:1000F6000B840BAE86EF00F0010E036E026A016AF6
:0A010600006A0A360232FF0E1200F2
:080110000AAE029E000E12006F
:100118004ABE02D0839E01D0838E4ABC02D0839C03
:1001280001D0838C4ABA02D0839A01D0838A4AB814
:1001380002D0839801D0838831B002D0838401D063
:1001480083948386C0DF83964AB602D0839E01D00B
:10015800838E4AB402D0839C01D0838C4AB202D0E9
:10016800839A01D0838A4AB002D0839801D08388C9
:1001780031B002D0838401D083948386A4DF839630
:0C01880031A002D095DF01D0A1DF1200F1
:0E019400026A016A006A086A036A000E12001D
:1001A2000A6A0350D8A40A800750D8A40A820A50C7
:1001B200D8B434EF01F0030AD8B4EDEF00F00AB07E
:1001C200E8EF00F006AE32EF01F030EF01F002AEE0
:1001D20030EF01F032EF01F00250800B0A6E029E06
:1001E2000650800B069E0A18D8B4FEEF00F00A50A3
:1001F200D8B430EF01F032EF01F00750035CD8B40D
:1002020008EF01F0D8A024EF01F02AEF01F0065028
:10021200025CD8B412EF01F0D8A024EF01F02AEF6B
:1002220001F00550015CD8B41CEF01F0D8A024EF16
:1002320001F02AEF01F00450005CD8B434EF01F071
:10024200D8B02AEF01F00A52D8B432EF01F030EF01
:1002520001F00A52D8B430EF01F032EF01F0D88049
:0E0262001200D8901200D880D884120012002A
:10027000086A096A000E07620364BDEF01F00250CC
:1002800006180A6E075003267E0ED8A04EEF01F026
:10029000035ED8B0C1EF01F052EF01F0035ED8A0C9
:1002A000C5EF01F0028E068E02C00EF001C00BF009
:1002B00000C00DF000500402F4CF0CF00150050214
:1002C000F4CF00F0F3CF08F00402F3500C26F45002
:1002D0000822000E00220D500502F3500C26F450A7
:1002E0000822000E002202500402F3500826F450A7
:1002F000002202500502016A000E0122F35000267E
:10030000F45001220D500602F3500826F45000224A
:10031000026A000E012202220B500602F350002650
:10032000F4500122000E02220E500602F350012664
:10033000F450022202BEA5EF01F008360036013665
:1003400002360306D8B4C5EF01F0B8EF01F0D8804B
:10035000800E08640030000E002201220222D8A084
:10036000B8EF01F0023201320032034AC1EF01F06E
:100370000AAE029E000EC7EF01F0010E0BDFC7EFC1
:1003800001F0020EACDEC7EF01F0040EB4DE120085
:0C039000319046C04AF0C0DE31801200FF
:10039C000D6A086A0050D8B4000C04180A6E0ABE24
:1003AC000D1E0B6A04AE02D0041E042A00AE02D04D
:1003BC00001E002A005004100A6E0ABE1FD0045002
:1003CC00085E003600340836045008260036060E47
:1003DC000C6E00340836045000B0085E00A00826ED
:1003EC0000360C2EF6D700A008260BB015D00DAE9B
:1003FC00000C001E002A081E082A000C04AE09D0AE
:10040C0000BE04D00050086E006AF1D7006A002AC2
:10041C00000C001E0B2AD3D7082A0450085CD8A461
:0E042C00E6D7086A002A00AEE2D7FF0C1200E5
:10043A000C6A0E6A0250D8A436EF02F001C002F02C
:10044A0000C001F0006A0E860250D8A436EF02F00E
:10045A0001C002F0016A0E960E880250D8B448EF25
:10046A0002F00E50035ED8A4D8A04DEF02F0D89047
:10047A0002BE52EF02F0003601360236032E3DEF7D
:10048A0002F04DEF02F0010E0C6E7FDE55EF02F026
:10049A00020E0C6E2BDE55EF02F0040E0C6E33DEEC
:0204AA0012003E
:1004AC0046C004F047C005F004C002F005C003F0DC
:1004BC00044A052A48C000F049C001F0484A492ABC
:1004CC0000C0E9FF01C0EAFF02C0E1FF03C0E2FF88
:1004DC00EECFE6FF02C0E9FF03C0EAFFEE5201E0F7
:0C04EC00E3D746C000F047C001F012004A
:1004F8000900F5CFE6FF0006FBE10106F9E112006D
:10050800959695949598959A959C959E839683949F
:10051800839E839C839A8398CBDDCADDC9DD838A59
:1005280083888386D0DD8396C3DD8386CCDD83967E
:10053800BFDD8386C8DD8396BBDD83988386C3DDF4
:100548008396B6DD8386BFDD8396839A838E838602
:10055800BADD8396ADDD839E83888386B4DD83967A
:1005680083988386B0DD8396A3DD8386ACDD83968E
:1005780083888386A8DD83969BDD83988386A3DDA5
:100588008396838E838C838A838883869CDD839677
:060598008FDD318012002E
:10059E000050086E0150006E016A026A036A0B6A0F
:1005AE000C6A960E036E0A6A00C001F008C000F0D5
:0805BE00086A026A3BDF12002B
:1005C6000FD0800E386E19D0C00E386E16D0940E2D
:1005D600386E13D0D40E386E10D0800E386E0DD013
:1005E6003850010AEEE03850020AEEE03850030AAD
:1005F600EEE03850040AEEE0F0D73904006E3850C9
:10060600002600C038F000C04AF083DD31903C6A15
:100616003C503A24E96E000E3B20EA6EEE520BE0A7
:100626003C503A24E96E000E3B20EA6EEECF46F0CF
:0A063600ACDE3C2AEDD73180120043
:10064000446A456A38C040F039C041F03AC042F0CF
:100650003BC043F04350FF0A08E14250FF0A05E166
:100660004150FF0A02E14050FF0A0CE13CC046F055
:100670003DC047F0190E486E000E496E17DF030E9D
:10068000006EE9D1010E3E6E42AE0ED0800E4218D1
:10069000006E00C042F03E2A3CC0E1FF3DC0E2FFD8
:1006A0002D0EE66E3C4A3D2A000E006E431808E10E
:1006B0000050421805E10050411802E14050000A84
:1006C0000BE13CC046F03DC047F01D0E486E000EE9
:1006D000496EECDE006ABFD14350FF0A08E1425088
:1006E000000A05E14150000A02E14050000A0CE115
:1006F0003CC046F03DC047F01F0E486E000E496EEC
:10070000D5DE3EC000F0A7D1000E046E000E056ECF
:10071000000E066E7F0E076E40C000F041C001F073
:1007200042C002F043C003F03CDD010ED8B0000E21
:10073000006E00521BE040C000F041C001F042C01A
:1007400002F043C003F0000E046E000E056E200E92
:10075000066E820E076E8CDD00C040F001C041F0D5
:1007600002C042F003C043F04506CED7000E046E2F
:10077000000E056E200E066E820E076E40C000F061
:1007800041C001F042C002F043C003F00ADD000E98
:10079000D8B0010E006E00521BE040C000F041C016
:1007A00001F042C002F043C003F0CD0E046ECC0E47
:1007B000056E4C0E066E7B0E076E5ADD00C040F0D3
:1007C00001C041F002C042F003C043F0452ACED739
:1007D000FF0E4014086EFF0E4114096E7F0E421486
:1007E0000A6E000E43140B6E08C004F009C005F039
:1007F0000AC006F00BC007F0043604900536063632
:100800000736000E4014006E000E4114016E000EFB
:100810004214026EFF0E4314036E00C040F001C08C
:1008200041F002C042F003C043F004504010006E9B
:1008300005504110016E06504210026E07504310E1
:10084000036E00C040F001C041F002C042F003C09E
:1008500043F07F0E435C006E00C03FF0010E436E1C
:1008600000C004F040C000F041C001F042C002F0FE
:1008700043C003F0045007E0003600900136023612
:100880000336FF0FF8D700C040F001C041F002C0AE
:1008900042F003C043F03CC0E1FF3DC0E2FF4350E3
:1008A000300FE66E3C4A3D2A800E4518006E800EE1
:1008B000010A005C08E3800E060A006E800E4518EF
:1008C000005C01E30AD03CC0E1FF3DC0E2FF2E0E18
:1008D000E66E3C4A3D2A010E446E060E3F6E3F50C6
:1008E000000A54E0436A40C000F041C001F042C039
:1008F00002F043C003F000360090013602360336A2
:100900000036009001360236033640500026415032
:100910000122425002224350032200C040F001C095
:1009200041F002C042F003C043F040C000F041C0BB
:1009300001F042C002F043C003F0003600900136DF
:100940000236033600C040F001C041F002C042F060
:1009500003C043F03CC0E1FF3DC0E2FF4350300F15
:10096000E66E3C4A3D2A4450000A0EE145064550D9
:10097000000A0AE13CC0E1FF3DC0E2FF2E0EE66E38
:100980003C4A3D2A010E446E3F06A9D7FF0E3C2487
:10099000E96EFF0E3D20EA6EEE50300A05E1010ED1
:1009A0003C5E000E3D5AF2D7FF0E3C24E96EFF0E6E
:1009B0003D20EA6EEE502E0A04E1010E3C5E000E70
:1009C0003D5A4550000A41E03CC0E1FF3DC0E2FF16
:1009D000650EE66E3C4A3D2A800E4518006E800E7C
:1009E000000A005C0BE23CC0E1FF3DC0E2FF2D0EBF
:1009F000E66E3C4A3D2A45500008456E45C03FF032
:100A0000800E090A006E800E4518005C0EE20A0E88
:100A1000046E3FC000F0C2DC3CC0E1FF3DC0E2FF1D
:100A20000050300FE66E3C4A3D2A0A0E046E3FC06D
:100A300000F0B4DC08C000F03CC0E1FF3DC0E2FFC4
:100A40000050300FE66E3C4A3D2A3CC0E1FF3DC0FD
:080A5000E2FFE66A006A1200F1
:100A580043EC05F0010E926E806A410EC26EC00E24
:100A6800C16E9E9C9D8CF28CF28E4ADD450EC26E44
:040A7800FFD7FFD7CE
:100A860010EE19F00A0E006E010E016E7C0EF66E67
:0E0A96000A0EF76E000EF86E7CEC02F01200F5
:040A7C004E614E0079
:020A8000300044
:040A8200494E460093
:020000040030CA
:0D000100220F0EFF0181FF0FC00FE00F4026
:00000001FF
