:100000000EEF00F00000000000EF00F00000000024
:0A0010000000000000000000F3D71C
:10001C00010E156E020E166E040E176E080E186E7B
:10002C00100E196E200E1A6E400E1B6E800E1C6E7A
:10003C00070EC16E826A946A016A080E015C25E2A1
:10004C00150EE96E000EEA6E0150E926D8B0EA2AC8
:10005C00EECF82FF050E0B6E0F0E0C6EF10E0D6EB9
:10006C000D2EFED70C2EFCD70B2EFAD7826A030E60
:10007C000B6E080E0C6E770E0D6E0D2EFED70C2E21
:0E008C00FCD70B2EFAD7012AD8D7D6D7FFD72C
:020000040030CA
:0D000100220F0EFF0181FF0FC00FE00F4026
:00000001FF
