:100000001DEF00F00000000000EF00F00000000015
:0A0010000000000000000000F3D71C
:10001C00086A080E0C6E003408360450085ED8B01E
:0E002C0002D00826D89000360C2EF5D7120010
:10003A003F0E176E060E186E5B0E196E4F0E1A6E75
:10004A00660E1B6E6D0E1C6E7D0E1D6E070E1E6EED
:10005A007F0E1F6E670E206E070EC16E92909292EF
:10006A00956A836A80908092156A3C0E155C40E21C
:10007A00166A190E165C3AE20A0E046E15C000F0F2
:10008A00C8DF08C000F0170EE96E000EEA6E0050D5
:10009A00E926D8B0EA2AEECF83FF8080340E0C6EB0
:1000AA00F10E0D6E0D2EFED70C2EFCD700000000AF
:1000BA0080900A0E046E15C000F0ABDF170EE96ED1
:1000CA00000EEA6E0050E926D8B0EA2AEECF83FF86
:1000DA008082340E0C6EF10E0D6E0D2EFED70C2E94
:1000EA00FCD7000000008092162AC3D7152ABDD774
:0400FA00BBD7FFD79A
:020000040030CA
:0D000100220F0EFF0181FF0FC00FE00F4026
:00000001FF
