:040000009EEF00F07F
:1000080030D800C015F081CF16F0F29000C083FF01
:020018001100D5
:10001A000B6A0A6A096A00500402F4CF09F0F3CFA6
:10002A0008F001500502F4CF0BF0F3CF0AF00050AC
:10003A000502F3500926F4500A22E86A0B220150FD
:10004A000402F3500926F4500A22E86A0B2208C077
:10005A0000F009C001F00AC002F00BC003F0120060
:10006A00186A100E196E310E1A6E320E1B6E330E8E
:10007A001C6E340E1D6E350E1E6E360E1F6E370E3A
:10008A00206E380E216E390E226E2A0E236E300E25
:10009A00246E230E256E1A0E0C6EF80E0D6E0D2EA2
:1000AA00FED70C2EFCD70000176A040E175C0BE271
:1000BA0019508114016E0150000A01E104D0193669
:1000CA001990172AF2D7010E816EF00E8114016E73
:1000DA000150F00A08E081CF00F00036009000C01D
:1000EA0081FF182AF2D7816A060E0C6E300E0D6E49
:1000FA000D2EFED70C2EFCD70000F00E8114016ED7
:10010A000150F00AF1E1030E006E000E016E17C0F5
:10011A0004F0000E056E7CDF1A0E0026000E012286
:10012A0018500024E96E000E0120EA6EEECF00F0AE
:02013A001200B1
:10013C00070EC16EF00E936E956A836A816AF19E0A
:10014C00F290F28681CF16F03D0E836EFBD7FFD76F
:020000040030CA
:0D000100220F0EFF0181FF0FC00FE00F4026
:00000001FF
